:100000000C9422010C9453010C9453010C94530151
:100010000C9453010C9453010C9453010C94530110
:100020000C9453010C9453010C9453010C94530100
:100030000C9453010C9453010C9453010C945301F0
:100040000C9453010C94D7050C9453010C94530158
:100050000C9453010C9453010C9453010C9403051C
:100060000C9453010C9453010C9453010C945301C0
:100070000C9453010C9453010C9453010C945301B0
:100080000C94A9050C9453010C9453010C94530146
:100090000C9453010C9453010C9453010C94530190
:1000A0000C9453010C9453010C947B050C94530154
:1000B0000C9453010C9453010C9453010C944D0572
:1000C0000C9453010C9453010C9453010C94530160
:1000D0000C9453010C9453010C9453010C94530150
:1000E0000C9453010C9443020C9436020C943A0283
:1000F0000C94E1020C945F020C9417020C944D02D4
:100100000C9455020C94FD040C945B020C94E002D8
:100110000C9432020C9469020C9451020C946D02FE
:100120000C942E020C9447020C9463020C94BA01B6
:100130000C947D070C943D020C941C0200002100DD
:10014000240027002A002D003000330001010000A8
:10015000040107010A0100002200250028002B00ED
:100160002E003100340002010000050108010B01DE
:1001700005050505070508080808020202020A0A23
:100180000808040404040101010101010101030341
:10019000030303030303040707070C0C0C0C0C0CEC
:1001A0000C0C0202020206060606060606060B0BE9
:1001B0000B0B0B0B0B0B010210202008081020402A
:1001C000102040800201020108040201010204081B
:1001D00010204080804020100804020180040201A9
:1001E00080402010080402010804020101020408F2
:1001F00010204080010204081020408000000A0BFB
:1002000002090C0D0E0807030401000000000000A5
:1002100000000000000000000000000000000000DE
:10022000000000000000000012111000000000009B
:1002300000000000000000000000000000000000BE
:1002400000007D0711241FBECFEFD1E2DEBFCDBF7E
:1002500000E00CBF12E0A0E0B2E0E8E7F0E100E06F
:100260000BBF02C007900D92A432B107D9F722E06C
:10027000A4E2B2E001C01D92AD3DB207E1F711E08A
:10028000C2E2D1E000E006C021970109802FFE0103
:100290000E943208C132D10780E00807A9F70E9406
:1002A00005060C943A080C9400008F929F92AF922E
:1002B000BF92FF920F931F93CF93DF93F090C202F0
:1002C0002FE22F1508F44CC02091C40208E512E07B
:1002D000021B110927FD1395000F111F000F111F9D
:1002E0002091C302C8E8D0E0C21BD10927FDD395F5
:1002F000CC0FDD1FCC0FDD1F4E010D2E000CAA0808
:10030000BB089801012E000C440B550B2819390924
:100310004A095B09DC010E94ED0724EB30E040E074
:1003200050E00E94C307820E931EA41EB51E8C16B9
:100330009D062CF0E801801691060CF4E40122974A
:10034000CC0FDD1F2FB7F8948F2D90E0FC01EE0F3E
:10035000FF1FE80FF91FEE5CFD4FD283C1832FBF53
:10036000DF91CF911F910F91FF90BF90AF909F9021
:100370008F900895AF92BF92CF92DF92EF92FF924B
:100380000F931F93CF93DF936C017B018B01040FBD
:10039000151FEB015E01AE18BF08C017D10759F059
:1003A0006991D601ED91FC910190F081E02DC6019B
:1003B0001995892B79F7C501DF91CF911F910F9185
:1003C000FF90EF90DF90CF90BF90AF900895282FCF
:1003D00030E0F901E450FE4F9491F901EA54FE4FE8
:1003E000449120593E4FF9012491222309F435C04C
:1003F000992311F191509231F8F4E92FF0E0882718
:10040000EB5FFD4F8F4F0C94320836023A02170211
:100410002E0232021C023D02430247024D025102EB
:1004200055025B025F021C02630269026D02809149
:1004300080008F7780938000E22FF0E0EE0FFF1FA7
:10044000EA5AFE4FA591B4918FB7F894EC916111DF
:1004500048C040954E234C938FBF089580918000F3
:100460008F7DE8CF80918000877FE4CF84B58F7740
:1004700084BDE2CF84B58F7DFBCF8091B0008F77B4
:100480008093B000D9CF8091B0008F7DF9CF80915B
:1004900090008F7780939000CFCF809190008F7DD8
:1004A000F9CF80919000877FF5CF8091A0008F7762
:1004B0008093A000C1CF8091A0008F7DF9CF809163
:1004C000A000877FF5CF809120018F778093200156
:1004D000B3CF809120018F7DF9CF80912001877F5C
:1004E000F5CF4E2BB8CFCF93DF9390E0FC01EA54C9
:1004F000FE4F249180599E4FFC0184918823D1F0B6
:1005000090E0880F991FFC01E45CFE4FA591B49127
:10051000FC01EA5AFE4FC591D49161110EC09FB7FC
:10052000F8948C91E22FE0958E238C932881E2231E
:10053000E8839FBFDF91CF9108958FB7F894EC9136
:10054000E22BEC938FBFF6CF90917B00977F909337
:100550007B008653806480937C0080917A00806465
:1005600080937A0080917A0086FDFCCF809178009C
:100570009091790008953FB7F89480912E02909160
:100580002F02A0913002B091310226B5A89B05C080
:100590002F3F19F00196A11DB11D3FBFBA2FA92F02
:1005A000982F8827BC01CD01620F711D811D911DFF
:1005B00042E0660F771F881F991F4A95D1F708956B
:1005C000089590E080E00895AF92BF92CF92DF92BD
:1005D000EF92FF920F931F93CF93DF936B017A01FA
:1005E000EC01CB5DDD4F28813CE0389F8001399FD5
:1005F000100D1124A0902402B12C27FF1FC0FB0175
:100600001182108288818F5F888388819801280FEA
:10061000311D87FD3A95F6012A153B051CF48881AA
:100620008C30C4F180819181049680349C4908F417
:1006300073C0F60180819181049670C08881980111
:10064000280F311D87FD3A952A153B05DCF6888178
:10065000A801480F511D87FD5A95FA01EE0FFF1FA3
:10066000E40FF51FEE5CFD4F808186FFCBCF8881C4
:10067000F801E80FF11D87FDFA95CF01EE0FFF1F7E
:10068000E80FF91FEE5CFD4F808160E08F730E94E0
:10069000E701B8CF808191812881A801420F511DC7
:1006A00027FD5A959A01FA01EE0FFF1FE20FF31F83
:1006B000EE5CFD4F21813281820F931FF701918300
:1006C000808388819801280F311D87FD3A95F901B3
:1006D000EE0FFF1FE20FF31FEE5CFD4F808186FFE0
:1006E00022C08881080F111D87FD1A95F801EE0FB1
:1006F000FF1FE00FF11FEE5CFD4F808161E08F7303
:10070000DF91CF911F910F91FF90EF90DF90CF90ED
:10071000BF90AF900C94E70180E49CE9F7019183CE
:1007200080838FEF8883DF91CF911F910F91FF908E
:10073000EF90DF90CF90BF90AF900895FC010190B3
:100740000020E9F73197AF01481B590BBC0185EC3C
:1007500092E00C94BA01CF93DF93EC0160E08E81BC
:100760000E94E70161E08E810E94E70160E08E81D6
:100770000E94E7018BE891E00197F1F7DF91CF91BB
:100780000895CF92DF92EF92FF920F931F93CF9332
:10079000DF936C017C0187E0E80EF11CD0E0C0E043
:1007A000062F10E0B8010C2E02C0759567950A94CB
:1007B000E2F76170F70181917F010E94E7012196C4
:1007C000C430D10579F7C601DF91CF911F910F9108
:1007D000FF90EF90DF90CF900C94AB03CF92DF921D
:1007E000EF92FF920F931F93CF93DF93EC01F62EBE
:1007F000642F8C810E94E7018D818F3F19F060E0AA
:100800000E94E7010F2D10E08F8584FF25C06E0147
:1008100087E0C80ED11CF12CE12CB8010E2C02C0CF
:10082000759567950A94E2F76170F60181916F0101
:100830000E94E701FFEFEF1AFF0A88E0E816F104D3
:1008400061F7CE01DF91CF911F910F91FF90EF9053
:10085000DF90CF900C94AB03B80184E07595679559
:100860008A95E1F7CE010E94C1036F2DCE01DF9181
:10087000CF911F910F91FF90EF90DF90CF900C944C
:10088000C10340E0682F85EC92E00C94EE0381E018
:100890000E9441048BE39FE10197F1F70895CF9304
:1008A000DF93823029F49091D40298609093D4021F
:1008B0008093D8021092D90280E48093DA0280E11A
:1008C0008093DB0280E58093DC0261E08091C902C5
:1008D0000E9473028091CA028F3F19F061E00E946A
:1008E000730261E08091CB020E947302C5ECD2E0FA
:1008F0009E01255C32408091D40284FD0BC084E0CF
:1009000090E021962817390744F461E08E810E9417
:100910007302EECF88E090E0F4CF8BE39DE0019787
:10092000F1F760E08091C9020E94E70160E08091E8
:10093000CB020E94E7018091CA028F3F19F060E06C
:100940000E94E7018091D40284FD34C063E085EC0D
:1009500092E00E94C103CBE4D6E4CE010197F1F707
:1009600063E085EC92E00E94C1032197F1F763E018
:1009700085EC92E00E94C10383E592E00197F1F7D4
:1009800062E085EC92E00E94C1038091D402806213
:100990000E94410484E08093D5028CE00E944104CF
:1009A0000E94470482E08093D60286E0DF91CF91D7
:1009B0000C94410480620E9441048BE496E4019708
:1009C000F1F78091D40280620E94410483E592E0B5
:1009D0000197F1F78091D40280620E944104D5CF43
:1009E000E1E08091D8028111E0E0E195F0E0EB5385
:1009F000FD4F848980680C94410441E00E94EE031D
:100A000081E090E008951F920F920FB60F9211248B
:100A10002F933F938F939F93AF93BF9380912A021D
:100A200090912B02A0912C02B0912D0230912902BD
:100A300023E0230F2D3758F50196A11DB11D2093FA
:100A4000290280932A0290932B02A0932C02B09348
:100A50002D0280912E0290912F02A0913002B09130
:100A600031020196A11DB11D80932E0290932F0299
:100A7000A0933002B0933102BF91AF919F918F91BB
:100A80003F912F910F900FBE0F901F90189526E861
:100A9000230F0296A11DB11DD2CF1F920F920FB648
:100AA0000F9211240BB60F922F933F934F935F93A6
:100AB0006F937F938F939F93AF93BF93EF93FF9326
:100AC00048E251E064E271E090E080E00E94E402DC
:100AD000FF91EF91BF91AF919F918F917F916F9116
:100AE0005F914F913F912F910F900BBE0F900FBED2
:100AF0000F901F9018951F920F920FB60F9211240E
:100B00000BB60F922F933F934F935F936F937F9307
:100B10008F939F93AF93BF93EF93FF9348EA50E077
:100B200064EA70E083E090E00E94E402FF91EF91BC
:100B3000BF91AF919F918F917F916F915F914F91F5
:100B40003F912F910F900BBE0F900FBE0F901F90F3
:100B500018951F920F920FB60F9211240BB60F9299
:100B60002F933F934F935F936F937F938F939F93B5
:100B7000AF93BF93EF93FF9348E950E064E970E0CF
:100B800082E090E00E94E402FF91EF91BF91AF916B
:100B90009F918F917F916F915F914F913F912F9195
:100BA0000F900BBE0F900FBE0F901F9018951F92C5
:100BB0000F920FB60F9211240BB60F922F933F9303
:100BC0004F935F936F937F938F939F93AF93BF9355
:100BD000EF93FF9348E850E064E870E081E090E034
:100BE0000E94E402FF91EF91BF91AF919F918F918D
:100BF0007F916F915F914F913F912F910F900BBE1D
:100C00000F900FBE0F901F901895789484B5826056
:100C100084BD84B5816084BD85B5826085BD85B5A0
:100C2000816085BD80916E00816080936E0010921E
:100C30008100809181008260809381008091810099
:100C4000816080938100809180008160809380002A
:100C50008091B10084608093B1008091B000816088
:100C60008093B00080919100826080939100809188
:100C700091008160809391008091900081608093C9
:100C800090008091A10082608093A1008091A100DA
:100C900081608093A1008091A00081608093A0007A
:100CA00080912101826080932101809121018160E6
:100CB00080932101809120018160809320018091A7
:100CC0007A00846080937A0080917A0082608093B9
:100CD0007A0080917A00816080937A0080917A0016
:100CE000806880937A001092C1008091C2028033A4
:100CF00008F051C061E080E00E9473028091C2025E
:100D0000282F30E0F901EE0FFF1FE20FF31FEE5C1A
:100D1000FD4F9081907C90831092C3021092C40288
:100D20002CE0622F0E942608829FB001112430E03F
:100D300020E0AB01420F531FFA01EE0FFF1FE40F3B
:100D4000F51FEE5CFD4F908196FD17C02F5F3F4F62
:100D50002C30310571F7813009F07FC0109280008E
:100D600082E0809381001092850010928400B19AF5
:100D700080916F00826080936F00E091C2028E2F9D
:100D800090E0FC01EE0FFF1FE80FF91FEE5CFD4F36
:100D900080818064808382E00E944F0461E08DE066
:100DA0000E94730260E086E30E94730260E087E3C2
:100DB0000E94730260E088E30E94730290E0E92ED3
:100DC00090E0F92E86E30E94A4028C0187E30E9442
:100DD000A402EC0188E30E94A4020C171D070CF486
:100DE0006FC0081719070CF464C090E080E00E94FF
:100DF00055010E9447040E94F0048CE092E00E949A
:100E00009E030E94BB022B013C0184EF882E992493
:100E10009394A12CB12C0E94BB0264197509860918
:100E20009709683E734081059105A8F321E0821A75
:100E30009108A108B10888EE480E83E0581E611C95
:100E4000711C81149104A104B10429F7E114F10487
:100E500009F4B8CF0E940000B5CF823061F410923F
:100E6000900080939100109295001092940088BB9E
:100E70008093710082CF833069F41092A00082E0E9
:100E80008093A1001092A5001092A40089BB8093CA
:100E9000720073CF811171CF1092200182E0809394
:100EA000210110922501109224018ABB80937300C6
:100EB00064CFC017D107B4F0C817D9079CF003C09E
:100EC000C817D9075CF08AE590E00E9455010E949E
:100ED00047040E94F00484E192E091CF80179107CB
:100EE0000CF48FCF84EB90E00E9455010E944704E0
:100EF0000E94F0048EE192E082CF80912402803340
:100F0000F0F591E0980F909324028093C20290E054
:100F1000FC01EE0FFF1FE80FF91FEE5CFD4F88EBA1
:100F20009BE0928381831092C8021092C70284E0F2
:100F300092E09093C6028093C5028DE08093C9022F
:100F40008FEF8093CA028CE08093CB0288E080937D
:100F5000CC0289E08093CD028AE08093CE028BE0C0
:100F60008093CF021092D0021092D1021092D2023E
:100F70001092D3021092D40281E00C944F048FEFB0
:100F80008093C202D0CF052E97FB1EF400940E94DE
:100F9000DA0757FD07D00E94F50707FC03D04EF48F
:100FA0000C94DA0750954095309521953F4F4F4F5F
:100FB0005F4F089590958095709561957F4F8F4F05
:100FC0009F4F08950E941708A59F900DB49F900D04
:100FD000A49F800D911D11240895B7FF0C94E20782
:100FE0000E94E207821B930B0895A1E21A2EAA1B0E
:100FF000BB1BFD010DC0AA1FBB1FEE1FFF1FA217C9
:10100000B307E407F50720F0A21BB30BE40BF50BC5
:10101000661F771F881F991F1A9469F7609570954E
:10102000809590959B01AC01BD01CF010895A29FD1
:10103000B001B39FC001A39F700D811D1124911DAC
:10104000B29F700D811D1124911D0895991B79E0A7
:1010500004C0991F961708F0961B881F7A95C9F748
:1010600080950895EE0FFF1F881F8BBF0790F691A4
:08107000E02D1994F894FFCF64
:1010780000000000FD04BA01E102E0024D6F726E4B
:10108800696E670041667465726E6F6F6E004E69B7
:041098006768740011
:00000001FF
