:100000000C9435000C945D000C945D000C945D0024
:100010000C945D000C945D000C945D000C945D00EC
:100020000C945D000C945D000C945D000C945D00DC
:100030000C945D000C945D000C945D000C945D00CC
:100040000C946C010C945D000C94DC010C94B601D2
:100050000C945D000C945D000C945D000C945D00AC
:100060000C945D000C945D00990211241FBECFEF2B
:10007000D8E0DEBFCDBF11E0A0E0B1E0ECE9F5E0F3
:1000800002C005900D92A832B107D9F721E0A8E28D
:10009000B1E001C01D92AE3CB207E1F710E0C5E34C
:1000A000D0E004C02197FE010E94C602C433D107EC
:1000B000C9F70E940E020C94CC020C940000AF927F
:1000C000BF92CF92DF92EF92FF920F931F93CF9345
:1000D000DF936C017B018B01040F151FEB015E01A7
:1000E000AE18BF08C017D10759F06991D601ED913C
:1000F000FC910190F081E02DC6010995892B79F7DB
:10010000C501DF91CF911F910F91FF90EF90DF908C
:10011000CF90BF90AF900895FC01538D448D252F53
:1001200030E0842F90E0821B930B541710F0CF9691
:10013000089501970895FC01918D828D981761F0C3
:10014000A28DAE0FBF2FB11D5D968C91928D9F5FDA
:100150009F73928F90E008958FEF9FEF0895FC01B9
:10016000918D828D981731F0828DE80FF11D858D6C
:1001700090E008958FEF9FEF0895FC01918D228DFF
:10018000892F90E0805C9F4F821B91098F73992784
:10019000089588E291E00E94BD0021E0892B09F4D6
:1001A00020E0822F089580E090E0892B29F00E94C2
:1001B000C90081110C9400000895FC01A48DA80FC2
:1001C000B92FB11DA35ABF4F2C91848D90E0019699
:1001D0008F739927848FA689B7892C93A089B189B9
:1001E0008C91837080648C93938D848D981306C05A
:1001F0000288F389E02D80818F7D80830895EF92BE
:10020000FF920F931F93CF93DF93EC0181E0888FD0
:100210009B8D8C8D98131AC0E889F989808185FFA0
:1002200015C09FB7F894EE89FF896083E889F98942
:1002300080818370806480839FBF81E090E0DF9144
:10024000CF911F910F91FF90EF900895F62E0B8D97
:1002500010E00F5F1F4F0F731127E02E8C8D8E1152
:100260000CC00FB607FCFACFE889F989808185FFB9
:10027000F5CFCE010E94DD00F1CFEB8DEC0FFD2F0D
:10028000F11DE35AFF4FF0829FB7F8940B8FEA8974
:10029000FB8980818062CFCFCF93DF93EC01888D83
:1002A0008823B9F0AA89BB89E889F9898C9185FDF1
:1002B00003C0808186FD0DC00FB607FCF7CF8C917F
:1002C00085FFF2CF808185FFEDCFCE010E94DD005A
:1002D000E9CFDF91CF9108951F920F920FB60F9241
:1002E00011242F933F938F939F93AF93BF9380914C
:1002F000CA019091CB01A091CC01B091CD01309178
:10030000C90123E0230F2D3758F50196A11DB11D1A
:100310002093C9018093CA019093CB01A093CC0193
:10032000B093CD018091C5019091C601A091C70104
:10033000B091C8010196A11DB11D8093C501909394
:10034000C601A093C701B093C801BF91AF919F911F
:100350008F913F912F910F900FBE0F901F90189586
:1003600026E8230F0296A11DB11DD2CF1F920F9236
:100370000FB60F9211242F933F934F935F936F9378
:100380007F938F939F93AF93BF93EF93FF9388E2F5
:1003900091E00E94DD00FF91EF91BF91AF919F919D
:1003A0008F917F916F915F914F913F912F910F901E
:1003B0000FBE0F901F9018951F920F920FB60F92BD
:1003C00011242F938F939F93EF93FF93E091380124
:1003D000F09139018081E0913E01F0913F0182FD71
:1003E0001BC09081809141018F5F8F7320914201EA
:1003F000821741F0E0914101F0E0E85DFE4F958FFA
:1004000080934101FF91EF919F918F912F910F90D8
:100410000FBE0F901F9018958081F4CF789484B50B
:10042000826084BD84B5816084BD85B5826085BDF0
:1004300085B5816085BD80916E00816080936E007E
:100440001092810080918100826080938100809170
:100450008100816080938100809180008160809321
:1004600080008091B10084608093B1008091B000E1
:1004700081608093B00080917A00846080937A00DC
:1004800080917A00826080937A0080917A00816006
:1004900080937A0080917A00806880937A0010922D
:1004A000C100E0913801F091390182E08083E09150
:1004B0003401F09135011082E0913601F09137015D
:1004C0008FEC808310924001E0913C01F0913D015E
:1004D00086E08083E0913A01F0913B018081806168
:1004E0008083E0913A01F0913B01808188608083B4
:1004F000E0913A01F0913B01808180688083E09136
:100500003A01F0913B0180818F7D808344E150E08E
:1005100062E171E088E291E00E945F00C0E0D0E01B
:100520002097F1F30E94C9008823D1F30E940000B4
:10053000F7CFE8E2F1E01382128288EE93E0A0E0C8
:10054000B0E084839583A683B78384E091E09183B0
:10055000808385EC90E09587848784EC90E0978792
:10056000868780EC90E0918B808B81EC90E0938B80
:10057000828B82EC90E0958B848B86EC90E0978B5D
:10058000868B118E128E138E148E0895EE0FFF1F20
:0C0590000590F491E02D0994F894FFCF41
:10059C0000000000FF005F008C004C01BD009B00C0
:1005AC00AF005061727361205361666165692039D7
:0805BC00373331303339000000
:00000001FF
