:100000000C945E000C9486000C9486000C94860080
:100010000C9486000C9486000C9486000C94950237
:100020000C9486000C9486000C9486000C94860038
:100030000C9486000C9486000C9486000C94860028
:100040000C9449030C9486000C9417030C94F10251
:100050000C9486000C9486000C9486000C94860008
:100060000C9486000C9486000000000024002700F9
:100070002A0000000008000201000003040700003D
:10008000000000000000010204081020408001026E
:1000900004081020010204081020000000002500C0
:1000A00028002B00040404040404040402020202D5
:1000B00002020303030303030200970511241FBE7A
:1000C000CFEFD8E0DEBFCDBF11E0A0E0B1E0E8E9BE
:1000D000FBE002C005900D92A431B107D9F721E0F1
:1000E000A4E1B1E001C01D92AD3CB207E1F710E020
:1000F000CEE5D0E004C02197FE010E94C405CD35B5
:10010000D107C9F70E9493030C94CA050C94000010
:10011000AF92BF92CF92DF92EF92FF920F931F9315
:10012000CF93DF936C017B018B01040F151FEB0153
:100130005E01AE18BF08C017D10759F06991D6010A
:10014000ED91FC910190F081E02DC6010995892B7C
:1001500079F7C501DF91CF911F910F91FF90EF903B
:10016000DF90CF90BF90AF900895FC01538D448DE8
:10017000252F30E0842F90E0821B930B541710F052
:10018000CF96089501970895FC01918D828D98175F
:1001900061F0A28DAE0FBF2FB11D5D968C91928D37
:1001A0009F5F9F73928F90E008958FEF9FEF089568
:1001B000FC01918D828D981731F0828DE80FF11D31
:1001C000858D90E008958FEF9FEF0895FC01918D4C
:1001D000228D892F90E0805C9F4F821B91098F7345
:1001E000992708958DE191E00E94E60021E0892B96
:1001F00009F420E0822F089580E090E0892B29F017
:100200000E94F20081110C9400000895FC01A48D5D
:10021000A80FB92FB11DA35ABF4F2C91848D90E028
:1002200001968F739927848FA689B7892C93A0890B
:10023000B1898C91837080648C93938D848D981395
:1002400006C00288F389E02D80818F7D8083089528
:10025000EF92FF920F931F93CF93DF93EC0181E016
:10026000888F9B8D8C8D98131AC0E889F9898081BD
:1002700085FF15C09FB7F894EE89FF896083E889F0
:10028000F98980818370806480839FBF81E090E0E2
:10029000DF91CF911F910F91FF90EF900895F62E6F
:1002A0000B8D10E00F5F1F4F0F731127E02E8C8D09
:1002B0008E110CC00FB607FCFACFE889F98980814E
:1002C00085FFF5CFCE010E940601F1CFEB8DEC0F3B
:1002D000FD2FF11DE35AFF4FF0829FB7F8940B8F6B
:1002E000EA89FB8980818062CFCFCF93DF93EC01D5
:1002F000888D8823B9F0AA89BB89E889F9898C910E
:1003000085FD03C0808186FD0DC00FB607FCF7CFC9
:100310008C9185FFF2CF808185FFEDCFCE010E94C9
:100320000601E9CFDF91CF91089590E0FC01EE58EE
:10033000FF4F2491FC01EA57FF4F3491FC01EC552B
:10034000FF4FE491EE23C9F0222339F0233001F16D
:10035000A8F4213019F1223029F1F0E0EE0FFF1F4F
:10036000E656FF4FA591B4918FB7F894EC916111C7
:1003700026C030953E233C938FBF08952730A9F0C7
:100380002830C9F0243049F7809180008F7D03C068
:10039000809180008F7780938000DFCF84B58F7746
:1003A00084BDDBCF84B58F7DFBCF8091B0008F778C
:1003B0008093B000D2CF8091B0008F7DF9CF3E2BDB
:1003C000DACF9091000189130BC0E8EBF0E0E491E3
:1003D0009FEF90930001E13049F028F0E23061F0A6
:1003E00060E00C94950110926E00FACF90916F002E
:1003F0009D7F90936F00F4CF909170009D7F9093BC
:10040000700091E09093B0009091B100987F94605B
:100410009093B1001092B300E3CFCF93DF9390E0BD
:10042000FC01EA57FF4F24918C559F4FFC018491AA
:100430008823D1F090E0880F991FFC01E859FF4F05
:10044000A591B491FC01E656FF4FC591D49161117D
:100450000EC09FB7F8948C91E22FE0958E238C9379
:100460002881E223E8839FBFDF91CF9108958FB762
:10047000F894EC91E22BEC938FBFF6CF3FB7F89452
:100480008091190190911A01A0911B01B0911C015A
:1004900026B5A89B05C02F3F19F00196A11DB11DDF
:1004A0003FBFBA2FA92F982F8827BC01CD01620F1B
:1004B000711D811D911D42E0660F771F881F991FD6
:1004C0004A95D1F708958F929F92AF92BF92CF92A3
:1004D000DF92EF92FF924B015C010E943E026B01A2
:1004E0007C010E943E026C197D098E099F09683EBD
:1004F000734081059105A8F321E0821A9108A108B3
:10050000B10888EEC80E83E0D81EE11CF11C8114EE
:100510009104A104B10429F7FF90EF90DF90CF90F0
:10052000BF90AF909F908F9008951F920F920FB63B
:100530000F9211242F933F934F935F936F937F9369
:100540008F939F93AF93BF93EF93FF938091BF01DE
:100550009091C001A091C101B091C201892B8A2B59
:100560008B2BD1F19091BA01E091BB01F091BC01CC
:100570008081892780838091BF019091C001A091E3
:10058000C101B091C201181619061A061B069CF487
:100590008091BF019091C001A091C101B091C201B1
:1005A0000197A109B1098093BF019093C001A09365
:1005B000C101B093C201FF91EF91BF91AF919F91A3
:1005C0008F917F916F915F914F913F912F910F90FC
:1005D0000FBE0F901F901895809100010E94E101BD
:1005E000EACF1F920F920FB60F9211242F933F93D1
:1005F0004F935F936F937F938F939F93AF93BF932B
:10060000EF93FF938DE191E00E940601FF91EF913E
:10061000BF91AF919F918F917F916F915F914F911A
:100620003F912F910F900FBE0F901F9018951F9222
:100630000F920FB60F9211242F938F939F93EF93E6
:10064000FF93E0912D01F0912E018081E091330123
:10065000F091340182FD1BC09081809136018F5F43
:100660008F7320913701821741F0E0913601F0E05D
:10067000E35EFE4F958F80933601FF91EF919F913E
:100680008F912F910F900FBE0F901F901895808122
:10069000F4CF1F920F920FB60F9211242F933F9316
:1006A0008F939F93AF93BF93809115019091160103
:1006B000A0911701B09118013091140123E0230F8C
:1006C0002D3758F50196A11DB11D2093140180937B
:1006D000150190931601A0931701B0931801809112
:1006E000190190911A01A0911B01B0911C01019672
:1006F000A11DB11D8093190190931A01A0931B01B4
:10070000B0931C01BF91AF919F918F913F912F9119
:100710000F900FBE0F901F90189526E8230F02969A
:10072000A11DB11DD2CF789484B5826084BD84B5FB
:10073000816084BD85B5826085BD85B5816085BDDC
:1007400080916E00816080936E0010928100809194
:10075000810082608093810080918100816080931C
:100760008100809180008160809380008091B10041
:1007700084608093B1008091B00081608093B0006C
:1007800080917A00846080937A0080917A00826000
:1007900080937A0080917A00816080937A008091C2
:1007A0007A00806880937A001092C100E0912D0158
:1007B000F0912E0182E08083E0912901F0912A01DD
:1007C0001082E0912B01F0912C018FEC808310922C
:1007D0003501E0913101F091320186E08083E091B2
:1007E0002F01F0913001808180618083E0912F01A1
:1007F000F0913001808188608083E0912F01F09139
:100800003001808180688083E0912F01F091300178
:1008100080818F7D808361E08AE00E940D0261E02B
:1008200089E00E940D0260E08EE00E940D025FE709
:10083000452E5EE3552E68EB662E60E0762E0DEABF
:1008400010E0CC24C394D12C88248A94982C540191
:100850004FE8E42E40E0F42E30E0232E30E0332E3B
:1008600080E480937C0080917A00806480937A0099
:1008700080917A0086FDFCCF90917800809179007C
:10088000892798278927CFEFD0E0C81BD90B1C16E2
:100890001D060CF05EC061E08AE00E940D02CF3FB1
:1008A000D10529F461E08AE00E94950123C0ECE7BC
:1008B000F0E08491833099F148F48130B9F08230CE
:1008C00049F1C038D10574F760E0EDCF873089F188
:1008D0008830B9F18430A9F78091800080628093DC
:1008E0008000D0938B00C0938A0004C084B58068D8
:1008F00084BDC7BD1092CC011092CB0121143104EC
:1009000009F4AECF0E94F200882309F4A5CF0E941B
:1009100000009ECF84B5806284BDC8BDEBCF8091BE
:100920008000806880938000D0938900C093880005
:10093000E1CF8091B00080688093B000C093B30095
:10094000D9CF8091B00080628093B000C093B40092
:10095000D1CF8091CB019091CC01892B79F661E0C8
:100960008AE00E940D0260E08AE00E949501809179
:1009700000018930B1F4F301C491C7FDADC061E05D
:1009800089E00E940D02CC2309F479C0C23009F03D
:100990008AC08091B100887F84608093B10089EF24
:1009A000B6C08F3F09F098C089E080930001F30141
:1009B000C491CF3F09F490C0C13019F150F0C2305A
:1009C00009F43CC0C7FD88C061E089E00E940D02C7
:1009D000DDCF14BC15BC84B5826084BD85B5816053
:1009E00085BDF8018491E82FF0E0EE0FFF1FE65679
:1009F000FF4F85919491F70184918093BE01C0E0EF
:100A0000BECF10928000109281008091810088609A
:100A10008093810080918100816080938100F80142
:100A20008491E82FF0E0EE0FFF1FE656FF4F85910F
:100A30009491F70184918093BD01A1CF1092B000F1
:100A40001092B1008091B00082608093B0008091DC
:100A5000B10081608093B100F8018491E82FF0E04B
:100A6000EE0FFF1FE656FF4F859194919093BC01C6
:100A70008093BB01F70184918093BA0180CF85B543
:100A8000887F836085BD89EF87BD8092C701909282
:100A9000C801A092C901B092CA0180916E00826023
:100AA00080936E0019C0C13059F580918100887F14
:100AB00081608093810050928900409288008092EA
:100AC000C3019092C401A092C501B092C601809169
:100AD0006F00826080936F0068EE73E080E090E0CA
:100AE0000E94630289E00E94E10168EB7BE080E004
:100AF00090E00E946302D092CC01C092CB01FECE66
:100B0000C23021F0C111E8CF8FE7BECF8FE78093CD
:100B1000B3008092BF019092C001A092C101B09237
:100B2000C20180917000826080937000D5CFEDE1AA
:100B3000F1E01382128288EE93E0A0E0B0E08483BB
:100B40009583A683B78385E091E09183808385ECCC
:100B500090E09587848784EC90E09787868780EC87
:100B600090E0918B808B81EC90E0938B828B82EC78
:100B700090E0958B848B86EC90E0978B868B118E22
:100B8000128E138E148E0895EE0FFF1F0590F491B0
:080B9000E02D0994F894FFCF59
:100B9800FF0000000028018800B5007501E600C4C8
:040BA80000D8000071
:00000001FF
