:100000000C9436010C9467010C9467010C94670101
:100010000C9467010C9467010C9467010C946701C0
:100020000C9467010C9467010C9467010C946701B0
:100030000C9467010C9454060C9467010C946701AE
:100040000C9467010C9488070C9467010C94670169
:100050000C9467010C9467010C9467010C94B4062E
:100060000C9467010C9467010C9467010C94670170
:100070000C9467010C9467010C9467010C94670160
:100080000C945A070C9467010C9467010C94670157
:100090000C9467010C9467010C9467010C94670140
:1000A0000C9467010C9467010C942C070C94670165
:1000B0000C9467010C9467010C9467010C94FE0684
:1000C0000C9467010C9467010C9467010C94670110
:1000D0000C9467010C9467010C9467010C94670100
:1000E0000C9467010C94D4030C94ED020C94D5028B
:1000F0000C94EC020C94E3020C94B2020C94610296
:100100000C94C1020C94D9020C94C7020C94BE0248
:100110000C94BA020C94B7040C94CB020C94E70232
:100120000C941E030C94D1020C94F1020C94B804AC
:100130000C94B6020C94490D0C94DF020C94AC02A2
:100140000C944F030C944E0600002100240027005D
:100150002A002D00300033000101000004010701D6
:100160000A01000020002300260029002C002F0097
:1001700032000001000003010601090100000A0B22
:1001800002090C0D0E080703040100000000000026
:10019000000000000000000000000000000000005F
:1001A000000000000000000012111000000000001C
:1001B000000000000000000000000000000000003F
:1001C000000001021020200808102040102040806C
:1001D000020102010804020101020408102040800B
:1001E0008040201008040201800402018040201099
:1001F00008040201080402010102040810204080E2
:100200000102040810204080000022002500280080
:100210002B002E003100340002010000050108010E
:100220000B0105050505070508080808020202027A
:100230000A0A080804040404010101010101010182
:100240000303030303030303040707070C0C0C0C4D
:100250000C0C0C0C02020202060606060606060636
:100260000B0B0B0B0B0B0B0B0200490D11241FBECC
:10027000CFEFD1E2DEBFCDBF00E00CBF12E0A0E0C7
:10028000B2E0E6EAFCE100E00BBF02C007900D928D
:10029000AC32B107D9F723E0ACE2B2E001C01D9265
:1002A000AC37B207E1F711E0C6E3D1E000E006C0E9
:1002B00021970109802FFE010E94490EC533D10705
:1002C00080E00807A9F70E94B6070C94510E0C9421
:1002D00000008F929F92AF92BF92FF920F931F9355
:1002E000CF93DF93F09061032FE22F1508F44CC0F9
:1002F0002091630308E512E0021B110927FD139505
:10030000000F111F000F111F20916203C8E8D0E0F9
:10031000C21BD10927FDD395CC0FDD1FCC0FDD1FEC
:100320004E010D2E000CAA08BB089801012E000CEE
:10033000440B550B281939094A095B09DC010E9455
:10034000040E24EB30E040E050E00E94DA0D820E13
:10035000931EA41EB51E8C169D062CF0E801801677
:1003600091060CF4E4012297CC0FDD1F2FB7F8940F
:100370008F2D90E0FC01EE0FFF1FE80FF91FEF52E9
:10038000FD4FD283C1832FBFDF91CF911F910F917A
:10039000FF90BF90AF909F908F90089596E0899FB7
:1003A000D0011124AE59BD4F90967C936E935F9708
:1003B00091E091969C939197E091CF02F091D002B9
:1003C0009091CE02992339F0309751F0811108C0F5
:1003D00080917E021994309719F05C968C91FACF37
:1003E0000895CF92DF92EF92FF920F931F9396E0C2
:1003F000899FF0011124EE59FD4F11A2278D30A1E4
:100400002130310551F178F02230310509F451C025
:100410002330310509F452C01F910F91FF90EF90E6
:10042000DF90CF9008956623B9F361E070E00E94F9
:10043000CE012FB7F89480915E0290915F02A09157
:100440006002B09161022FBF8093BA029093BB0209
:10045000A093BC02B093BD02DFCF9FB7F894C090C9
:100460005E02D0905F02E0906002F09061029FBF58
:100470000091BA021091BB022091BC023091BD02E2
:10048000C01AD10AE20AF30A0091CC021091CD02FF
:1004900030E020E00C151D052E053F0550F462E00C
:1004A00070E01F910F91FF90EF90DF90CF900C9430
:1004B000CE016111B1CF63E070E0F3CF70E060E096
:1004C000F0CFAF92BF92CF92DF92EF92FF920F9355
:1004D0001F93CF93DF936C017B018B01040F151FDA
:1004E000EB015E01AE18BF08C017D10759F0699142
:1004F000D601ED91FC910190F081E02DC601199596
:10050000892B79F7C501DF91CF911F910F91FF9052
:10051000EF90DF90CF90BF90AF90089581508231DF
:1005200008F05AC0E82FF0E08827E656FD4F8F4FBD
:100530000C94490EBA02BE02AC02B202B602EC0240
:10054000C102C702CB02D102D502D902DF02E30207
:10055000EC02E702ED02F102809180008F77809338
:1005600080000895809180008F7DF9CF8091800078
:10057000877FF5CF84B58F7784BD089584B58F7D4F
:10058000FBCF8091B0008F778093B0000895809169
:10059000B0008F7DF9CF809190008F77809390008D
:1005A0000895809190008F7DF9CF80919000877F92
:1005B000F5CF8091A0008F778093A000089580915F
:1005C000A0008F7DF9CF8091A000877FF5CF80912B
:1005D00020018F77809320010895809120018F7DE5
:1005E000F9CF80912001877FF5CFCF93DF93282F1C
:1005F00030E0F901E458FE4F8491F901EE53FE4FCB
:10060000D491F901EE5DFD4FC491CC23A1F081118D
:100610000E948E02EC2FF0E0EE0FFF1FEE59FE4F0E
:10062000A591B491EC91ED2381E090E009F480E094
:10063000DF91CF91089580E090E0FACF862F0C945F
:10064000F5021F93CF93DF93282F30E0F901E45890
:10065000FE4F8491F901EE53FE4FD491F901EE5D06
:10066000FD4FC491CC23A9F0162F81110E948E0258
:10067000EC2FF0E0EE0FFF1FE85FFD4FA591B49166
:100680008FB7F894EC91111108C0D095DE23DC935C
:100690008FBFDF91CF911F910895DE2BF8CF862F6A
:1006A000642F0C9421039091130289130DC0E8E686
:1006B000F2E0E4919FEF90931302E230E1F038F41E
:1006C000EE2381F0E13089F060E00C942103E43006
:1006D00049F110F1E530C1F7909173009D7F90933F
:1006E0007300F2CF10926E00EFCF90916F009D7F5C
:1006F00090936F00E9CF909170009D7F9093700070
:1007000091E09093B0009091B100987F94609093A5
:10071000B1001092B300D8CF909171009D7F90935B
:100720007100D2CF909172009D7F90937200CCCFD8
:10073000CF93DF9390E0FC01EE53FE4F24918E5D4A
:100740009D4FFC0184918823C9F090E0880F991F88
:10075000FC01E85BFE4FA591B491FC01E85FFD4F01
:10076000C591D49161110DC09FB7F8948C912095DB
:1007700082238C938881282328839FBFDF91CF9188
:100780000895623051F49FB7F8943C91822F809580
:1007900083238C93E8812E2BEFCF8FB7F894EC91C5
:1007A0002E2B2C938FBFEACF862F642F0C949803A7
:1007B0003FB7F8948091320290913302A0913402B5
:1007C000B091350226B5A89B05C02F3F19F00196C0
:1007D000A11DB11D3FBFBA2FA92F982F8827BC019B
:1007E000CD01620F711D811D911D42E0660F771FC3
:1007F000881F991F4A95D1F70895AF92BF92CF9263
:10080000DF92EF92FF920F931F93CF93DF936B01D1
:100810007A01EC01C35DDD4F28813CE0389F800107
:10082000399F100D1124A0902C02B12C27FF1FC05E
:10083000FB011182108288818F5F888388819801F3
:10084000280F311D87FD3A95F6012A153B051CF44A
:1008500088818C30C4F180819181049680349C49D8
:1008600008F473C0F60180819181049670C088817C
:100870009801280F311D87FD3A952A153B05DCF6B6
:100880008881A801480F511D87FD5A95FA01EE0F86
:10089000FF1FE40FF51FEF52FD4F808186FFCBCF86
:1008A0008881F801E80FF11D87FDFA95CF01EE0F61
:1008B000FF1FE80FF91FEF52FD4F808160E08F733B
:1008C0000E942103B8CF808191812881A801420F25
:1008D000511D27FD5A959A01FA01EE0FFF1FE20FF5
:1008E000F31FEF52FD4F21813281820F931FF701D9
:1008F0009183808388819801280F311D87FD3A9567
:10090000F901EE0FFF1FE20FF31FEF52FD4F808141
:1009100086FF22C08881080F111D87FD1A95F801F6
:10092000EE0FFF1FE00FF11FEF52FD4F808161E0DE
:100930008F73DF91CF911F910F91FF90EF90DF9018
:10094000CF90BF90AF900C94210380E49CE9F70115
:10095000918380838FEF8883DF91CF911F910F91D7
:10096000FF90EF90DF90CF90BF90AF9008950895E3
:1009700090E080E008958F929F92AF92BF920F9384
:100980001F93CF93DF93CDB7DEB7A1970FB6F8943F
:10099000DEBF0FBECDBF19A2423008F44AE08E017F
:1009A0000F5D1F4F842E912CB12CA12CA501940119
:1009B0000E940C0EE62FB901CA01EA3044F5E05D51
:1009C000D801EE938D01232B242B252B79F790E072
:1009D00080E0109769F0FD0101900020E9F7319760
:1009E000AF014A1B5B0BBD0184E693E00E946102EC
:1009F000A1960FB6F894DEBF0FBECDBFDF91CF91A9
:100A00001F910F91BF90AF909F908F900895E95CD8
:100A1000D7CFCF93DF93EC0160E08E810E9421035A
:100A200061E08E810E94210360E08E810E9421039B
:100A30008BE891E00197F1F7DF91CF910895CF9284
:100A4000DF92EF92FF920F931F93CF93DF936C018E
:100A50007C0187E0E80EF11CD0E0C0E0062F10E03A
:100A6000B8010C2E02C0759567950A94E2F7617083
:100A7000F70181917F010E9421032196C430D105A5
:100A800079F7C601DF91CF911F910F91FF90EF9001
:100A9000DF90CF900C940905CF92DF92EF92FF92F6
:100AA0000F931F93CF93DF93EC01F62E642F8C816D
:100AB0000E9421038D818F3F19F060E00E94210385
:100AC0000F2D10E08F8584FF25C06E0187E0C80ED2
:100AD000D11CF12CE12CB8010E2C02C07595679544
:100AE0000A94E2F76170F60181916F010E9421037F
:100AF000FFEFEF1AFF0A88E0E816F10461F7CE0174
:100B0000DF91CF911F910F91FF90EF90DF90CF90E9
:100B10000C940905B80184E0759567958A95E1F70D
:100B2000CE010E941F056F2DCE01DF91CF911F9145
:100B30000F91FF90EF90DF90CF900C941F0540E055
:100B4000682F84E693E00C944C0581E00E949F0599
:100B50008BE39FE10197F1F70895CF93DF93823004
:100B600029F49091730398609093730380937703B3
:100B70001092780380E48093790380E180937A0374
:100B800080E580937B0361E0809168030E94980375
:100B9000809169038F3F19F061E00E94980361E042
:100BA00080916A030E949803C4E6D3E09E01245614
:100BB00033408091730384FD0BC084E090E0219664
:100BC0002817390744F461E08E810E949803EECF24
:100BD00088E090E0F4CF8BE39DE00197F1F760E0CF
:100BE000809168030E94210360E080916A030E9463
:100BF0002103809169038F3F19F060E00E94210377
:100C00008091730384FD34C063E084E693E00E9426
:100C10001F05CBE4D6E4CE010197F1F763E084E64B
:100C200093E00E941F052197F1F763E084E693E0CB
:100C30000E941F0583E592E00197F1F762E084E6E8
:100C400093E00E941F058091730380620E949F05BC
:100C500084E0809374038CE00E949F050E94A505A8
:100C600082E08093750386E0DF91CF910C949F051D
:100C700080620E949F058BE496E40197F1F78091D2
:100C8000730380620E949F0583E592E00197F1F76C
:100C90008091730380620E949F05D5CF41E00E943E
:100CA0004C0581E090E008951F920F920FB60F92CD
:100CB00011240BB60F922F933F934F935F936F9333
:100CC0007F938F939F93AF93BF93EF93FF93809105
:100CD0004A0290914B02A0914C02B0914D02892B97
:100CE0008A2B8B2BE1F190913902E0913A02F0913D
:100CF0003B0280818927808380914A0290914B0238
:100D0000A0914C02B0914D02181619061A061B0646
:100D10009CF480914A0290914B02A0914C02B091B8
:100D20004D020197A109B10980934A0290934B02A9
:100D3000A0934C02B0934D02FF91EF91BF91AF9100
:100D40009F918F917F916F915F914F913F912F91E3
:100D50000F900BBE0F900FBE0F901F9018958091B3
:100D600013020E945303E8CF1F920F920FB60F9207
:100D700011242F933F938F939F93AF93BF938091B1
:100D80005E0290915F02A0916002B0916102309189
:100D9000310223E0230F2D3758F50196A11DB11D17
:100DA0002093310280935E0290935F02A0936002D1
:100DB000B09361028091320290913302A09134028B
:100DC000B09135020196A11DB11D8093320290931E
:100DD0003302A0933402B0933502BF91AF919F913B
:100DE0008F913F912F910F900FBE0F901F901895EC
:100DF00026E8230F0296A11DB11DD2CF1F920F929C
:100E00000FB60F9211240BB60F922F933F934F936F
:100E10005F936F937F938F939F93AF93BF93EF9362
:100E2000FF9348E251E064E271E090E080E00E94CC
:100E3000FD03FF91EF91BF91AF919F918F917F91B2
:100E40006F915F914F913F912F910F900BBE0F903B
:100E50000FBE0F901F9018951F920F920FB60F9212
:100E600011240BB60F922F933F934F935F936F9381
:100E70007F938F939F93AF93BF93EF93FF9348EA32
:100E800050E064EA70E083E090E00E94FD03FF918F
:100E9000EF91BF91AF919F918F917F916F915F91F2
:100EA0004F913F912F910F900BBE0F900FBE0F905F
:100EB0001F9018951F920F920FB60F9211240BB628
:100EC0000F922F933F934F935F936F937F938F93E3
:100ED0009F93AF93BF93EF93FF9348E950E064E98A
:100EE00070E082E090E00E94FD03FF91EF91BF91DE
:100EF000AF919F918F917F916F915F914F913F91B2
:100F00002F910F900BBE0F900FBE0F901F90189552
:100F10001F920F920FB60F9211240BB60F922F93C0
:100F20003F934F935F936F937F938F939F93AF9371
:100F3000BF93EF93FF9348E850E064E870E081E0EE
:100F400090E00E94FD03FF91EF91BF91AF919F91BF
:100F50008F917F916F915F914F913F912F910F9062
:100F60000BBE0F900FBE0F901F901895CF93DF937D
:100F700000D0CDB7DEB7789484B5826084BD84B5E7
:100F8000816084BD85B5826085BD85B5816085BD84
:100F900080916E00816080936E001092810080913C
:100FA00081008260809381008091810081608093C4
:100FB0008100809180008160809380008091B100E9
:100FC00084608093B1008091B00081608093B00014
:100FD0008091910082608093910080919100816066
:100FE0008093910080919000816080939000809127
:100FF000A10082608093A1008091A1008160809314
:10100000A1008091A00081608093A00080912101C7
:101010008260809321018091210181608093210170
:101020008091200181608093200180917A0084600A
:1010300080937A0080917A00826080937A00809118
:101040007A00816080937A0080917A008068809332
:101050007A001092C10080916103803308F051C082
:1010600061E080E00E94980380916103282F30E0C6
:10107000F901EE0FFF1FE20FF31FEF52FD4F9081BA
:10108000907C908310926203109263032CE0622F95
:101090000E943D0E829FB001112430E020E0AB01A0
:1010A000420F531FFA01EE0FFF1FE40FF51FEF521F
:1010B000FD4F908196FD17C02F5F3F4F2C303105BB
:1010C00071F7813009F070C01092800082E0809347
:1010D00081001092850010928400B19A80916F0077
:1010E000826080936F00E09161038E2F90E0FC019D
:1010F000EE0FFF1FE80FF91FEF52FD4F8081806454
:10110000808361E087E00E94980382E00E94AD0541
:1011100061E085E10E94980361E084E10E94980308
:101120000FE71EE344244A94542C320139EC232E59
:1011300031E0332E81E08093CE028FB7F894409156
:101140005E0250915F0260916002709161028FBFF8
:101150008091BE029091BF02A091C002B091C102E5
:10116000481B590B6A0B7B0B8091CA029091CB02F2
:10117000B0E0A0E084179507A607B70708F042C2C1
:1011800019828091C80229812817D0F5E091C40204
:10119000F091C502E20FF11D62E080810E94980388
:1011A00039813F5F3983EDCF823061F41092900036
:1011B00080939100109295001092940088BB8093C8
:1011C000710091CF833069F41092A00082E0809387
:1011D000A1001092A5001092A40089BB8093720018
:1011E00082CF811180CF1092200182E08093210173
:1011F00010922501109224018ABB8093730073CF53
:10120000912C8091C902981608F071C0E92CF12C3C
:10121000E091C602F091C702EE0DFF1D61E08081F2
:101220000E949803E091C602F091C702EE0DFF1DE7
:1012300060E080810E94210381E090E0A0E0B0E0C6
:10124000092C04C0880F991FAA1FBB1F0A94D2F74C
:101250005C016C01C094D094812C8091C8028816E6
:1012600078F5882D90E09B838A83E091C402F09109
:10127000C5029C01E20FF31F80810E94F502EA8102
:10128000FB813496FB83EA83892B61F4EE0FFF1F09
:10129000EE59FD4F808191818A299B29918380831A
:1012A0008394DBCF2A813B81220F331F2E593D4F80
:1012B0003B832A83F901808191818C219D21EECF8E
:1012C000E091C602F091C702EE0DFF1D61E0808142
:1012D0000E9421038091C6029091C702E80EF91E78
:1012E00060E0F70180810E94980393948ACF82E6A0
:1012F000E82E82E0F82EFB82EA82EA81FB81878D6C
:1013000090A1892B31F4148E2FEF3FEF368F258F6C
:1013100011A28A819B8106969B838A838E59924073
:1013200061F7D12C8091C802D81608F053C0C12CA7
:10133000AD2CB12CAA0CBB1C950126593D4F59016F
:101340002091C902C21608F043C0F5016081718185
:101350000C2C02C0769567950A94E2F7D29E900114
:1013600011242C0D311DE2E6F2E080E0458D568D12
:101370002417350709F48BC38F5F36968A30B1F78F
:1013800060FF24C0E2E6F2E090E080E0448D41118D
:1013900018C0E091C202F091C302E20FF31F408136
:1013A00056E0589FF001599FF00D1124EE59FD4F62
:1013B000448F368F258F10A2178E61E00E94F101B5
:1013C00005C0019636968A30910501F7C394B8CFCF
:1013D000D394A8CF80E0F70191A19111892FF6E075
:1013E000EF0EF11C2A813B812E153F05A1F79FB717
:1013F000F89440915E0250915F026091600270919A
:1014000061029FBF4093BE025093BF026093C0022F
:101410007093C102882309F4F5C080918302882368
:1014200009F4F0C08091810290918202019709F045
:10143000E9C030917E023983898180538A3008F077
:1014400016C380915C0290915D02892B09F0B4C0B3
:1014500080915A0290915B02892B09F0B4C02091CF
:101460005802309159024AE0429FC001439F900DBB
:1014700011245981E52E550FFF08E0E3EE1AF1081B
:10148000E80EF91EF0925902E0925802209156029D
:10149000309157023B832A83E1E0809177038111E9
:1014A000E0E0E195F0E0EC59FC4F84893A81830F4C
:1014B00080680E949F0541E0698184E693E00E9474
:1014C0004C058A819B8101969B838A839093570266
:1014D00080935602A0901402B0901502EA14FB0407
:1014E000C1F40497B1F4E1E0F0E0F0935D02E09321
:1014F0005C0284EB90E00E94690161E085E10E945A
:101500002103109257021092560210925902109223
:1015100058028091580290915902A816B90609F410
:101520004BC08091560290915702049709F044C035
:1015300061E084E10E94210380911302873009F069
:1015400065C0E8E6F2E0F490F7FEC3C00E94D8035D
:101550006B017C0188EE882E83E0982EA12CB12CA3
:101560000E94D8036C197D098E099F09683E73405B
:1015700081059105A8F331E0831A9108A108B1080B
:1015800058EEC50E53E0D51EE11CF11C81149104E8
:10159000A104B10429F760E084E10E94210387E0FF
:1015A0000E9453030E94A505109257021092560202
:1015B000109259021092580280915C0290915D0243
:1015C000019709F4BFC1E981E33209F044C260E048
:1015D00085E10E9421038AE590E00E9469010E9452
:1015E000A505109259021092580210925D021092B5
:1015F0005C0210925B0210925A02109257021092F3
:10160000560229C21092CE02198216CF8F3F09F0DE
:101610009DCF87E080931302E8E6F2E0F4908F2DEF
:10162000FFEFFF1609F492CF22E0F21609F481C011
:101630002F1570F0FF2009F435C031E0F31609F4DE
:101640005AC087FD83CF61E087E00E94980348C0BD
:1016500054E0F51609F4AFC0F51608F48CC095E017
:10166000F912EFCF109220011092210180912101F7
:101670008860809321018091210181608093210104
:10168000E9E2F2E08491E82FF0E0EE0FFF1FE85F5F
:10169000FD4F85919491F10184918093360225E06C
:1016A000F22E17C014BC15BC84B5826084BD85B50C
:1016B000816085BDE9E2F2E08491E82FF0E0EE0F71
:1016C000FF1FE85FFD4F85919491F1018491809314
:1016D0003D0261E087E00E949803FF2009F489C081
:1016E000F2E0FF129AC08091B100887F84608093FD
:1016F000B10089EF17C11092800010928100809193
:101700008100886080938100809181008160809356
:101710008100E9E2F2E08491E82FF0E0EE0FFF1F94
:10172000E85FFD4F85919491F101849180933C0293
:10173000D0CF1092B0001092B1008091B0008260C2
:101740008093B0008091B10081608093B100E9E2A4
:10175000F2E08491E82FF0E0EE0FFF1FE85FFD4F0D
:101760008591949190933B0280933A02F101849188
:1017700080933902AECF1092900010929100809128
:1017800091008860809391008091910081608093A6
:101790009100E9E2F2E08491E82FF0E0EE0FFF1F04
:1017A000E85FFD4F85919491F10184918093380217
:1017B00053E0F52E8ECF1092A0001092A1008091E0
:1017C000A10088608093A1008091A1008160809336
:1017D000A100E9E2F2E08491E82FF0E0EE0FFF1FB4
:1017E000E85FFD4F85919491F101849180933702D8
:1017F00070CF85B5887F836085BD89EF87BD4092B6
:10180000520250925302609254027092550280919B
:101810006E00826080936E0099CE21E0F21218C0B3
:1018200080918100887F816080938100109389007E
:101830000093880040924E0250924F0260925002F4
:101840007092510280916F00826080936F007ECE13
:1018500033E0F31218C080919100887F81608093FB
:101860009100109399000093980040924602509284
:101870004702609248027092490280917100826032
:101880008093710063CE54E0F51218C08091A100DE
:10189000887F81608093A1001093A9000093A80025
:1018A000409242025092430260924402709245027A
:1018B0008091720082608093720048CE85E0F812B9
:1018C00018C080912101887F81608093210110934D
:1018D00029010093280140923E0250923F026092FB
:1018E0004002709241028091730082608093730085
:1018F0002DCE92E0F916A9F09F153CF0FF2079F06B
:10190000E1E0FE1609F492CF21CEF4E0FF1621F2B9
:10191000FF160CF4A6CF25E0F216C9F217CE8FE71A
:101920006DCF8FE78093B30040924A0250924B02F2
:1019300060924C0270924D028091700082608093A0
:10194000700004CE80915A0290915B02019709F0D9
:101950003ACE80915802909159022AE0289FB00116
:10196000299F700D11242981022E000C330B205366
:101970003109260F371F3B832A8330935902209366
:101980005802E0905602F0905702E0917703E2305F
:1019900008F069C0E150F0E0EC59FC4F84898E0DED
:1019A00080680E949F0541E0698184E693E00E947F
:1019B0004C053FEFE31AF30AF0925702E092560209
:1019C000E0917703E23008F050C0E150F0E0EC59CC
:1019D000FC4F848980680E949F058A819B814C010D
:1019E000990FAA08BB084AE0C501B401B7FE0EC0B2
:1019F00041E06DE284E693E00E944C05662777277C
:101A0000CB01681979098A099B094AE00E94BB0445
:101A10008091560290915702049709F0D4CD80919D
:101A2000580290915902909315028093140284EB0E
:101A300090E00E94690161E085E10E94210310921B
:101A400057021092560210925902109258021092A8
:101A50005B0210925A0280E090E0892B09F46ACB75
:101A60000E94000063CBE1E096CFE1E0AFCF998127
:101A70009A3209F0A8CD80915C0290915D0281308C
:101A8000910549F790935B0280935A02E4CF61700D
:101A900095CC109264021092680210926702109224
:101AA000690286E292E09093630280936202EEE71D
:101AB000F2E01082148213821582369682E0EA3BAD
:101AC000F807B9F783E092E09093C5028093C402CF
:101AD00080E092E09093C7028093C60284E08093F6
:101AE000C80283E08093C90287E092E09093C3022A
:101AF0008093C2028AE090E09093CB028093CA0266
:101B000084EF91E09093CD028093CC021092D002AA
:101B10001092CF021092BE021092BF021092C00229
:101B20001092C1021092CE0280912C028033F0F507
:101B300091E0980F90932C028093610390E0FC0158
:101B4000EE0FFF1FE80FF91FEF52FD4F88EB9BE0F0
:101B50009283818310926703109266038AE192E078
:101B600090936503809364038DE0809368038FEF07
:101B7000809369038CE080936A0388E080936B0311
:101B800089E080936C038AE080936D038BE08093FF
:101B90006E0310926F0310927003109271031092F3
:101BA00072031092730381E00C94AD058FEF809364
:101BB0006103D0CF052E97FB1EF400940E94F10D17
:101BC00057FD07D00E940C0E07FC03D04EF40C9476
:101BD000F10D50954095309521953F4F4F4F5F4FF8
:101BE000089590958095709561957F4F8F4F9F4F89
:101BF00008950E942E0EA59F900DB49F900DA49F56
:101C0000800D911D11240895B7FF0C94F90D0E94C9
:101C1000F90D821B930B0895A1E21A2EAA1BBB1B80
:101C2000FD010DC0AA1FBB1FEE1FFF1FA217B307A8
:101C3000E407F50720F0A21BB30BE40BF50B661FBE
:101C4000771F881F991F1A9469F760957095809582
:101C500090959B01AC01BD01CF010895A29FB001F9
:101C6000B39FC001A39F700D811D1124911DB29FD0
:101C7000700D811D1124911D0895991B79E004C0F8
:101C8000991F961708F0961B881F7A95C9F78095BB
:101C90000895EE0FFF1F881F8BBF0790F691E02D70
:061CA0001994F894FFCF37
:101CA6001817161D1E1F2031323334353637383992
:101CB6002A3023FFD204000000004E066102B80459
:0C1CC600B70400000000D4034F031E030D
:00000001FF
