:100000000C9461000C9473000C9473000C947300B6
:100010000C9473000C9473000C9473000C94730094
:100020000C9473000C9473000C9473000C94730084
:100030000C9473000C9473000C9473000C94730074
:100040000C94F2000C9473000C9473000C947300E5
:100050000C9473000C9473000C9473000C94730054
:100060000C9473000C94730000000000240027001F
:100070002A0000000000250028002B0000000008D6
:10008000000201000003040700000000000000005F
:1000900000000000230026002900040404040404D6
:1000A0000404020202020202030303030303010227
:1000B00004081020408001020408102001020408F6
:1000C000102011241FBECFEFD8E0DEBFCDBF21E04E
:1000D000A0E0B1E001C01D92AB30B207E1F70E9491
:1000E00081010C9400040C94000090E0FC01E458A1
:1000F000FF4F2491FC01E255FF4F3491FC01E6567D
:10010000FF4FE491EE23C9F0222339F0233001F1AF
:10011000A8F4213019F1223029F1F0E0EE0FFF1F91
:10012000EE58FF4FA591B4918FB7F894EC916111FF
:1001300026C030953E233C938FBF08952730A9F009
:100140002830C9F0243049F7809180008F7D03C0AA
:10015000809180008F7780938000DFCF84B58F7788
:1001600084BDDBCF84B58F7DFBCF8091B0008F77CE
:100170008093B000D2CF8091B0008F7DF9CF3E2B1D
:10018000DACFCF93DF9390E0FC01E255FF4F24914B
:1001900086569F4FFC0184918823D1F090E0880F10
:1001A000991FFC01E859FF4FA591B491FC01EE584D
:1001B000FF4FC591D49161110EC09FB7F8948C91F7
:1001C000E22FE0958E238C932881E223E8839FBF62
:1001D000DF91CF9108958FB7F894EC91E22BEC93D7
:1001E0008FBFF6CF1F920F920FB60F9211242F934D
:1001F0003F938F939F93AF93BF938091050190910D
:100200000601A0910701B09108013091040123E09B
:10021000230F2D3758F50196A11DB11D2093040120
:100220008093050190930601A0930701B093080104
:100230008091000190910101A0910201B091030110
:100240000196A11DB11D8093000190930101A0931F
:100250000201B0930301BF91AF919F918F913F91A4
:100260002F910F900FBE0F901F90189526E8230F27
:100270000296A11DB11DD2CFCF92DF92EF92FF92D5
:100280000F931F93E82FF92F05C001501109210981
:10029000310961F1908196239417B9F305C001509B
:1002A00011092109310911F1908196239413F7CF97
:1002B000C12CD12CE12CF12C0AC08FEFC81AD80A1E
:1002C000E80AF80A0C151D052E053F0579F0808116
:1002D0008623841791F36C2D7D2D8E2D9F2D1F91DC
:1002E0000F91FF90EF90DF90CF90089560E070E065
:1002F00080E090E01F910F91FF90EF90DF90CF9002
:100300000895789484B5826084BD84B5816084BD8D
:1003100085B5826085BD85B5816085BD80916E00A3
:10032000816080936E0010928100809181008260D4
:100330008093810080918100816080938100809111
:1003400080008160809380008091B1008460809300
:10035000B1008091B00081608093B00080917A00FC
:10036000846080937A0080917A00826080937A0022
:1003700080917A00816080937A0080917A00806811
:1003800080937A001092C10061E089E00E94C10070
:1003900060E088E00E94C10061E087E00E94C10047
:1003A00061E086E00E94C10061E085E00E94C1003A
:1003B00061E084E00E94C10061E083E00E94C1002E
:1003C000CFE0D0E093E2E92EF12C26EB822E20E064
:1003D000922E32EAC32E30E0D32E40E0A42E40E02D
:1003E000B42E60E089E00E947500CE010197F1F71C
:1003F00061E089E00E947500C7010197F1F760E0B4
:1004000089E00E947500F4016491F6018491E82F5F
:10041000F0E0EE0FFF1FE057FF4F8591949100E44D
:1004200012E42FE030E0462F0E943C016115710577
:100430008105910529F06F5F7F4F8F4F9F4F9F7010
:100440000E94070326E933E44BE05DE30E946B035F
:1004500020E030E040E05FE30E946B030E94CF02A7
:100460002B0150920A0140920901693C71050CF47C
:1004700080C060E087E00E94750060E086E00E9436
:10048000750060E085E00E94750060E084E00E94F5
:10049000750060E083E00E947500C201899788972B
:1004A000A0F460E087E00E94750060E086E00E94B2
:1004B000750061E085E00E94750061E084E00E94C3
:1004C000750060E083E00E947500C20181559109CA
:1004D0008897A0F460E087E00E94750061E086E004
:1004E0000E94750061E085E00E94750060E084E094
:1004F0000E94750060E083E00E947500C201895788
:1005000091098897A0F461E087E00E94750061E09E
:1005100086E00E94750060E085E00E94750060E062
:1005200084E00E94750060E083E00E947500F1EABB
:100530004F1A510888E248165104A0F461E087E0A0
:100540000E94750060E086E00E94750060E085E032
:100550000E94750060E084E00E94750060E083E026
:100560000E947500A114B10409F43BCF0E94000061
:1005700038CF693271050CF090CF60E087E00E94BF
:10058000750060E086E00E94750060E085E00E94F2
:10059000750061E084E00E94750061E07BCF0E94FD
:1005A000D6026894B1110C94650308950E944A0321
:1005B00088F09F5798F0B92F9927B751B0F0E1F024
:1005C000660F771F881F991F1AF0BA95C9F714C0D4
:1005D000B13091F00E946403B1E008950C9464037B
:1005E000672F782F8827B85F39F0B93FCCF386950D
:1005F00077956795B395D9F73EF49095809570956A
:1006000061957F4F8F4F9F4F0895E89409C097FBE6
:100610003EF490958095709561957F4F8F4F9F4FD9
:100620009923A9F0F92F96E9BB279395F69587951D
:1006300077956795B795F111F8CFFAF4BB0F11F4E0
:1006400060FF1BC06F5F7F4F8F4F9F4F16C0882387
:1006500011F096E911C0772321F09EE8872F762FBD
:1006600005C0662371F096E8862F70E060E02AF0FE
:100670009A95660F771F881FDAF7880F96958795EA
:1006800097F9089557FD9058440F551F59F05F3F53
:1006900071F04795880F97FB991F61F09F3F79F0A4
:1006A00087950895121613061406551FF2CF469526
:1006B000F1DF08C0161617061806991FF1CF8695A8
:1006C0007105610508940895E894BB27662777278C
:1006D000CB0197F908950E947E030C94EF030E94CA
:1006E000E10338F00E94E80320F0952311F00C9408
:1006F000D8030C94DE0311240C9465030E9442037A
:1007000070F3959FC1F3950F50E0551F629FF00164
:10071000729FBB27F00DB11D639FAA27F00DB11D7D
:10072000AA1F649F6627B00DA11D661F829F222706
:10073000B00DA11D621F739FB00DA11D621F839F8D
:10074000A00D611D221F749F3327A00D611D231F63
:10075000849F600D211D822F762F6A2F11249F57B1
:1007600050409AF0F1F088234AF0EE0FFF1FBB1FB4
:10077000661F771F881F91505040A9F79E3F510573
:1007800080F00C94D8030C9465035F3FE4F3983E2B
:10079000D4F3869577956795B795F795E7959F5F1D
:1007A000C1F7FE2B880F911D9695879597F90895AF
:1007B00097F99F6780E870E060E008959FEF80EC14
:1007C000089500240A9416161706180609060895B7
:1007D00000240A9412161306140605060895092E1D
:1007E0000394000C11F4882352F0BB0F40F4BF2B8C
:1007F00011F460FF04C06F5F7F4F8F4F9F4F0895CC
:04080000F894FFCF9A
:00000001FF
